{
  "contractName": "DNCE_Application",
  "abi": [
    {
      "inputs": [
        {
          "internalType": "uint256",
          "name": "total",
          "type": "uint256"
        }
      ],
      "stateMutability": "payable",
      "type": "constructor",
      "payable": true
    },
    {
      "anonymous": false,
      "inputs": [
        {
          "indexed": true,
          "internalType": "address",
          "name": "tokenOwner",
          "type": "address"
        },
        {
          "indexed": true,
          "internalType": "address",
          "name": "user",
          "type": "address"
        },
        {
          "indexed": false,
          "internalType": "uint256",
          "name": "no_tokens",
          "type": "uint256"
        }
      ],
      "name": "Approval",
      "type": "event"
    },
    {
      "anonymous": false,
      "inputs": [
        {
          "indexed": true,
          "internalType": "address",
          "name": "from",
          "type": "address"
        },
        {
          "indexed": true,
          "internalType": "address",
          "name": "to",
          "type": "address"
        },
        {
          "indexed": false,
          "internalType": "uint256",
          "name": "no_tokens",
          "type": "uint256"
        }
      ],
      "name": "Transfer",
      "type": "event"
    },
    {
      "inputs": [],
      "name": "decimals",
      "outputs": [
        {
          "internalType": "uint8",
          "name": "",
          "type": "uint8"
        }
      ],
      "stateMutability": "view",
      "type": "function",
      "constant": true
    },
    {
      "inputs": [],
      "name": "name",
      "outputs": [
        {
          "internalType": "string",
          "name": "",
          "type": "string"
        }
      ],
      "stateMutability": "view",
      "type": "function",
      "constant": true
    },
    {
      "inputs": [],
      "name": "symbol",
      "outputs": [
        {
          "internalType": "string",
          "name": "",
          "type": "string"
        }
      ],
      "stateMutability": "view",
      "type": "function",
      "constant": true
    },
    {
      "inputs": [],
      "name": "totalSupply",
      "outputs": [
        {
          "internalType": "uint256",
          "name": "",
          "type": "uint256"
        }
      ],
      "stateMutability": "view",
      "type": "function",
      "constant": true
    },
    {
      "inputs": [
        {
          "internalType": "address",
          "name": "tokenOwner",
          "type": "address"
        }
      ],
      "name": "balanceOf",
      "outputs": [
        {
          "internalType": "uint256",
          "name": "",
          "type": "uint256"
        }
      ],
      "stateMutability": "view",
      "type": "function",
      "constant": true
    },
    {
      "inputs": [
        {
          "internalType": "address",
          "name": "receiver",
          "type": "address"
        },
        {
          "internalType": "uint256",
          "name": "numTokens",
          "type": "uint256"
        }
      ],
      "name": "transfer",
      "outputs": [
        {
          "internalType": "bool",
          "name": "",
          "type": "bool"
        }
      ],
      "stateMutability": "nonpayable",
      "type": "function"
    },
    {
      "inputs": [
        {
          "internalType": "address",
          "name": "delegate",
          "type": "address"
        },
        {
          "internalType": "uint256",
          "name": "numTokens",
          "type": "uint256"
        }
      ],
      "name": "approve",
      "outputs": [
        {
          "internalType": "bool",
          "name": "",
          "type": "bool"
        }
      ],
      "stateMutability": "nonpayable",
      "type": "function"
    },
    {
      "inputs": [
        {
          "internalType": "address",
          "name": "owner",
          "type": "address"
        },
        {
          "internalType": "address",
          "name": "delegate",
          "type": "address"
        }
      ],
      "name": "allowance",
      "outputs": [
        {
          "internalType": "uint256",
          "name": "",
          "type": "uint256"
        }
      ],
      "stateMutability": "view",
      "type": "function",
      "constant": true
    },
    {
      "inputs": [
        {
          "internalType": "address",
          "name": "delegate",
          "type": "address"
        },
        {
          "internalType": "uint256",
          "name": "incValue",
          "type": "uint256"
        }
      ],
      "name": "increaseAllowance",
      "outputs": [
        {
          "internalType": "bool",
          "name": "",
          "type": "bool"
        }
      ],
      "stateMutability": "nonpayable",
      "type": "function"
    },
    {
      "inputs": [
        {
          "internalType": "address",
          "name": "delegate",
          "type": "address"
        },
        {
          "internalType": "uint256",
          "name": "decValue",
          "type": "uint256"
        }
      ],
      "name": "decreaseAllowance",
      "outputs": [
        {
          "internalType": "bool",
          "name": "",
          "type": "bool"
        }
      ],
      "stateMutability": "nonpayable",
      "type": "function"
    },
    {
      "inputs": [
        {
          "internalType": "address",
          "name": "owner",
          "type": "address"
        },
        {
          "internalType": "address",
          "name": "buyer",
          "type": "address"
        },
        {
          "internalType": "uint256",
          "name": "numTokens",
          "type": "uint256"
        }
      ],
      "name": "transferFrom",
      "outputs": [
        {
          "internalType": "bool",
          "name": "",
          "type": "bool"
        }
      ],
      "stateMutability": "nonpayable",
      "type": "function"
    },
    {
      "inputs": [],
      "name": "viewAdminBalance",
      "outputs": [
        {
          "internalType": "uint256",
          "name": "",
          "type": "uint256"
        }
      ],
      "stateMutability": "view",
      "type": "function",
      "constant": true
    },
    {
      "inputs": [],
      "name": "viewMembership",
      "outputs": [
        {
          "internalType": "uint256",
          "name": "",
          "type": "uint256"
        }
      ],
      "stateMutability": "view",
      "type": "function",
      "constant": true
    },
    {
      "inputs": [],
      "name": "registerStudent",
      "outputs": [],
      "stateMutability": "payable",
      "type": "function",
      "payable": true
    },
    {
      "inputs": [
        {
          "internalType": "uint256",
          "name": "fees_to_charge",
          "type": "uint256"
        }
      ],
      "name": "registerTeacher",
      "outputs": [],
      "stateMutability": "payable",
      "type": "function",
      "payable": true
    },
    {
      "inputs": [],
      "name": "registerStudioRenter",
      "outputs": [],
      "stateMutability": "payable",
      "type": "function",
      "payable": true
    },
    {
      "inputs": [
        {
          "internalType": "uint256",
          "name": "rent_to_charge_per_hour",
          "type": "uint256"
        }
      ],
      "name": "registerStudioOwner",
      "outputs": [],
      "stateMutability": "payable",
      "type": "function",
      "payable": true
    },
    {
      "inputs": [
        {
          "internalType": "address",
          "name": "student",
          "type": "address"
        }
      ],
      "name": "getStudentDetails",
      "outputs": [
        {
          "internalType": "uint256",
          "name": "",
          "type": "uint256"
        },
        {
          "internalType": "uint256",
          "name": "",
          "type": "uint256"
        }
      ],
      "stateMutability": "view",
      "type": "function",
      "constant": true
    },
    {
      "inputs": [
        {
          "internalType": "address",
          "name": "teacher",
          "type": "address"
        }
      ],
      "name": "getTeacherDetails",
      "outputs": [
        {
          "internalType": "uint256",
          "name": "",
          "type": "uint256"
        },
        {
          "internalType": "uint256",
          "name": "",
          "type": "uint256"
        }
      ],
      "stateMutability": "view",
      "type": "function",
      "constant": true
    },
    {
      "inputs": [
        {
          "internalType": "address",
          "name": "renter",
          "type": "address"
        }
      ],
      "name": "getStudioRenterDetails",
      "outputs": [
        {
          "internalType": "uint256",
          "name": "",
          "type": "uint256"
        },
        {
          "internalType": "uint256",
          "name": "",
          "type": "uint256"
        },
        {
          "internalType": "uint256",
          "name": "",
          "type": "uint256"
        }
      ],
      "stateMutability": "view",
      "type": "function",
      "constant": true
    },
    {
      "inputs": [
        {
          "internalType": "address",
          "name": "owner",
          "type": "address"
        }
      ],
      "name": "getStudioOwnerDetails",
      "outputs": [
        {
          "internalType": "uint256",
          "name": "",
          "type": "uint256"
        },
        {
          "internalType": "uint256",
          "name": "",
          "type": "uint256"
        },
        {
          "internalType": "uint256",
          "name": "",
          "type": "uint256"
        }
      ],
      "stateMutability": "view",
      "type": "function",
      "constant": true
    },
    {
      "inputs": [
        {
          "internalType": "address payable",
          "name": "teacher",
          "type": "address"
        }
      ],
      "name": "purchaseClass",
      "outputs": [
        {
          "internalType": "uint256",
          "name": "",
          "type": "uint256"
        }
      ],
      "stateMutability": "payable",
      "type": "function",
      "payable": true
    },
    {
      "inputs": [
        {
          "internalType": "address payable",
          "name": "studio_owner",
          "type": "address"
        },
        {
          "internalType": "uint256",
          "name": "number_of_hours",
          "type": "uint256"
        }
      ],
      "name": "rentStudio",
      "outputs": [
        {
          "internalType": "uint256",
          "name": "",
          "type": "uint256"
        }
      ],
      "stateMutability": "payable",
      "type": "function",
      "payable": true
    },
    {
      "inputs": [
        {
          "internalType": "address payable",
          "name": "owner",
          "type": "address"
        },
        {
          "internalType": "address payable",
          "name": "renter",
          "type": "address"
        },
        {
          "internalType": "uint256",
          "name": "amount",
          "type": "uint256"
        }
      ],
      "name": "settlePayment",
      "outputs": [],
      "stateMutability": "payable",
      "type": "function",
      "payable": true
    },
    {
      "inputs": [
        {
          "internalType": "address payable",
          "name": "user",
          "type": "address"
        }
      ],
      "name": "classCompletionRewards",
      "outputs": [
        {
          "internalType": "uint256",
          "name": "",
          "type": "uint256"
        }
      ],
      "stateMutability": "payable",
      "type": "function",
      "payable": true
    },
    {
      "inputs": [
        {
          "internalType": "address payable",
          "name": "user",
          "type": "address"
        }
      ],
      "name": "unregister",
      "outputs": [],
      "stateMutability": "nonpayable",
      "type": "function"
    }
  ],
  "bytecode": "0x60806040526040516200415638038062004156833981810160405281019062000029919062000144565b806002819055506002546000803373ffffffffffffffffffffffffffffffffffffffff1673ffffffffffffffffffffffffffffffffffffffff1681526020019081526020016000208190555033600360006101000a81548173ffffffffffffffffffffffffffffffffffffffff021916908373ffffffffffffffffffffffffffffffffffffffff160217905550600160056000600360009054906101000a900473ffffffffffffffffffffffffffffffffffffffff1673ffffffffffffffffffffffffffffffffffffffff1673ffffffffffffffffffffffffffffffffffffffff168152602001908152602001600020819055506002546004819055505062000194565b6000815190506200013e816200017a565b92915050565b6000602082840312156200015757600080fd5b600062000167848285016200012d565b91505092915050565b6000819050919050565b620001858162000170565b81146200019157600080fd5b50565b613fb280620001a46000396000f3fe6080604052600436106101815760003560e01c80635a29dc29116100d1578063a9059cbb1161008a578063dd62ed3e11610064578063dd62ed3e146105a7578063e03e04e8146105e4578063f6c8e74d14610614578063fed1dffe1461061e57610181565b8063a9059cbb146104ee578063c46de9231461052b578063d0b371bd1461056957610181565b80635a29dc29146103c35780636aa1af44146103ee57806370a082311461042d5780637ea752c81461046a57806395d89b4114610486578063a457c2d7146104b157610181565b806323b872dd1161013e5780633950935111610118578063395093511461033557806340705b0214610372578063429796581461039d578063454bd24e146103a757610181565b806323b872dd146102a45780632ec2c246146102e1578063313ce5671461030a57610181565b806301196cad1461018657806306fdde03146101c5578063095ea7b3146101f0578063130d6c411461022d57806318160ddd146102495780631aceac4c14610274575b600080fd5b34801561019257600080fd5b506101ad60048036038101906101a891906132b5565b61064e565b6040516101bc93929190613d0b565b60405180910390f35b3480156101d157600080fd5b506101da610842565b6040516101e79190613aa5565b60405180910390f35b3480156101fc57600080fd5b506102176004803603810190610212919061341d565b61087b565b6040516102249190613a8a565b60405180910390f35b61024760048036038101906102429190613459565b61096d565b005b34801561025557600080fd5b5061025e610bff565b60405161026b9190613cc7565b60405180910390f35b61028e600480360381019061028991906132de565b610c09565b60405161029b9190613cc7565b60405180910390f35b3480156102b057600080fd5b506102cb60048036038101906102c691906133ce565b610d87565b6040516102d89190613a8a565b60405180910390f35b3480156102ed57600080fd5b50610308600480360381019061030391906132de565b611102565b005b34801561031657600080fd5b5061031f61171a565b60405161032c9190613d42565b60405180910390f35b34801561034157600080fd5b5061035c6004803603810190610357919061341d565b61171f565b6040516103699190613a8a565b60405180910390f35b34801561037e57600080fd5b506103876117bd565b6040516103949190613cc7565b60405180910390f35b6103a5611804565b005b6103c160048036038101906103bc9190613307565b611a97565b005b3480156103cf57600080fd5b506103d8611c35565b6040516103e59190613cc7565b60405180910390f35b3480156103fa57600080fd5b50610415600480360381019061041091906132b5565b611ccf565b60405161042493929190613d0b565b60405180910390f35b34801561043957600080fd5b50610454600480360381019061044f91906132b5565b611ec3565b6040516104619190613cc7565b60405180910390f35b610484600480360381019061047f9190613459565b611f0b565b005b34801561049257600080fd5b5061049b6121e5565b6040516104a89190613aa5565b60405180910390f35b3480156104bd57600080fd5b506104d860048036038101906104d3919061341d565b61221e565b6040516104e59190613a8a565b60405180910390f35b3480156104fa57600080fd5b506105156004803603810190610510919061341d565b6122fb565b6040516105229190613a8a565b60405180910390f35b34801561053757600080fd5b50610552600480360381019061054d91906132b5565b6124dd565b604051610560929190613ce2565b60405180910390f35b34801561057557600080fd5b50610590600480360381019061058b91906132b5565b612682565b60405161059e929190613ce2565b60405180910390f35b3480156105b357600080fd5b506105ce60048036038101906105c99190613392565b612827565b6040516105db9190613cc7565b60405180910390f35b6105fe60048036038101906105f991906132de565b6128ae565b60405161060b9190613cc7565b60405180910390f35b61061c612c20565b005b61063860048036038101906106339190613356565b612efb565b6040516106459190613cc7565b60405180910390f35b60008060006001600560003373ffffffffffffffffffffffffffffffffffffffff1673ffffffffffffffffffffffffffffffffffffffff16815260200190815260200160002054146106d5576040517f08c379a00000000000000000000000000000000000000000000000000000000081526004016106cc90613b07565b60405180910390fd5b600860008573ffffffffffffffffffffffffffffffffffffffff1673ffffffffffffffffffffffffffffffffffffffff16815260200190815260200160002060000160009054906101000a900460ff16610764576040517f08c379a000000000000000000000000000000000000000000000000000000000815260040161075b90613c27565b60405180910390fd5b6000600860008673ffffffffffffffffffffffffffffffffffffffff1673ffffffffffffffffffffffffffffffffffffffff1681526020019081526020016000206002015490506000600860008773ffffffffffffffffffffffffffffffffffffffff1673ffffffffffffffffffffffffffffffffffffffff1681526020019081526020016000206003015490506000808773ffffffffffffffffffffffffffffffffffffffff1673ffffffffffffffffffffffffffffffffffffffff16815260200190815260200160002054828294509450945050509193909250565b6040518060400160405280601881526020017f44614e6365436f6d6d756e697479456e676167656d656e74000000000000000081525081565b600081600160003373ffffffffffffffffffffffffffffffffffffffff1673ffffffffffffffffffffffffffffffffffffffff16815260200190815260200160002060008573ffffffffffffffffffffffffffffffffffffffff1673ffffffffffffffffffffffffffffffffffffffff168152602001908152602001600020819055508273ffffffffffffffffffffffffffffffffffffffff163373ffffffffffffffffffffffffffffffffffffffff167f8c5be1e5ebec7d5bd14f71427d1e84f3dd0314c0f7b2291e5b200ac8c7c3b9258460405161095b9190613cc7565b60405180910390a36001905092915050565b6000339050600760003373ffffffffffffffffffffffffffffffffffffffff1673ffffffffffffffffffffffffffffffffffffffff16815260200190815260200160002060000160009054906101000a900460ff1615610a02576040517f08c379a00000000000000000000000000000000000000000000000000000000081526004016109f990613bc7565b60405180910390fd5b6001600560008373ffffffffffffffffffffffffffffffffffffffff1673ffffffffffffffffffffffffffffffffffffffff1681526020019081526020016000208190555081600760003373ffffffffffffffffffffffffffffffffffffffff1673ffffffffffffffffffffffffffffffffffffffff168152602001908152602001600020600201819055506001600760003373ffffffffffffffffffffffffffffffffffffffff1673ffffffffffffffffffffffffffffffffffffffff16815260200190815260200160002060000160006101000a81548160ff02191690831515021790555060008060003373ffffffffffffffffffffffffffffffffffffffff1673ffffffffffffffffffffffffffffffffffffffff16815260200190815260200160002054610b349190613d79565b6000803373ffffffffffffffffffffffffffffffffffffffff1673ffffffffffffffffffffffffffffffffffffffff168152602001908152602001600020819055506000808273ffffffffffffffffffffffffffffffffffffffff1673ffffffffffffffffffffffffffffffffffffffff16815260200190815260200160002054600760003373ffffffffffffffffffffffffffffffffffffffff1673ffffffffffffffffffffffffffffffffffffffff168152602001908152602001600020600101819055505050565b6000600254905090565b6000600360009054906101000a900473ffffffffffffffffffffffffffffffffffffffff1673ffffffffffffffffffffffffffffffffffffffff163373ffffffffffffffffffffffffffffffffffffffff1614610c9b576040517f08c379a0000000000000000000000000000000000000000000000000000000008152600401610c9290613be7565b60405180910390fd5b6000600660008473ffffffffffffffffffffffffffffffffffffffff1673ffffffffffffffffffffffffffffffffffffffff16815260200190815260200160002060020154905060006107d090506003821115610d7d57610cfc84826122fb565b5080600454610d0b9190613e29565b600481905550600454600080600360009054906101000a900473ffffffffffffffffffffffffffffffffffffffff1673ffffffffffffffffffffffffffffffffffffffff1673ffffffffffffffffffffffffffffffffffffffff16815260200190815260200160002081905550600091505b8092505050919050565b60008060008573ffffffffffffffffffffffffffffffffffffffff1673ffffffffffffffffffffffffffffffffffffffff16815260200190815260200160002054821115610dd457600080fd5b600160008573ffffffffffffffffffffffffffffffffffffffff1673ffffffffffffffffffffffffffffffffffffffff16815260200190815260200160002060003373ffffffffffffffffffffffffffffffffffffffff1673ffffffffffffffffffffffffffffffffffffffff16815260200190815260200160002054821115610e5d57600080fd5b610eae826000808773ffffffffffffffffffffffffffffffffffffffff1673ffffffffffffffffffffffffffffffffffffffff168152602001908152602001600020546131d790919063ffffffff16565b6000808673ffffffffffffffffffffffffffffffffffffffff1673ffffffffffffffffffffffffffffffffffffffff16815260200190815260200160002081905550610f7f82600160008773ffffffffffffffffffffffffffffffffffffffff1673ffffffffffffffffffffffffffffffffffffffff16815260200190815260200160002060003373ffffffffffffffffffffffffffffffffffffffff1673ffffffffffffffffffffffffffffffffffffffff168152602001908152602001600020546131d790919063ffffffff16565b600160008673ffffffffffffffffffffffffffffffffffffffff1673ffffffffffffffffffffffffffffffffffffffff16815260200190815260200160002060003373ffffffffffffffffffffffffffffffffffffffff1673ffffffffffffffffffffffffffffffffffffffff16815260200190815260200160002081905550611050826000808673ffffffffffffffffffffffffffffffffffffffff1673ffffffffffffffffffffffffffffffffffffffff1681526020019081526020016000205461322490919063ffffffff16565b6000808573ffffffffffffffffffffffffffffffffffffffff1673ffffffffffffffffffffffffffffffffffffffff168152602001908152602001600020819055508273ffffffffffffffffffffffffffffffffffffffff168473ffffffffffffffffffffffffffffffffffffffff167fddf252ad1be2c89b69c2b068fc378daa952ba7f163c4a11628f55a4df523b3ef846040516110ef9190613cc7565b60405180910390a3600190509392505050565b600360009054906101000a900473ffffffffffffffffffffffffffffffffffffffff1673ffffffffffffffffffffffffffffffffffffffff163373ffffffffffffffffffffffffffffffffffffffff1614611192576040517f08c379a000000000000000000000000000000000000000000000000000000000815260040161118990613be7565b60405180910390fd5b600360009054906101000a900473ffffffffffffffffffffffffffffffffffffffff1673ffffffffffffffffffffffffffffffffffffffff163373ffffffffffffffffffffffffffffffffffffffff1614611222576040517f08c379a000000000000000000000000000000000000000000000000000000000815260040161121990613ba7565b60405180910390fd5b6000600560008373ffffffffffffffffffffffffffffffffffffffff1673ffffffffffffffffffffffffffffffffffffffff1681526020019081526020016000208190555060008060008373ffffffffffffffffffffffffffffffffffffffff1673ffffffffffffffffffffffffffffffffffffffff16815260200190815260200160002081905550600660008273ffffffffffffffffffffffffffffffffffffffff1673ffffffffffffffffffffffffffffffffffffffff16815260200190815260200160002060000160009054906101000a900460ff16156113c2576000600660008373ffffffffffffffffffffffffffffffffffffffff1673ffffffffffffffffffffffffffffffffffffffff16815260200190815260200160002060000160006101000a81548160ff021916908315150217905550600660008273ffffffffffffffffffffffffffffffffffffffff1673ffffffffffffffffffffffffffffffffffffffff168152602001908152602001600020600080820160006101000a81549060ff02191690556001820160009055600282016000905550505b600760008273ffffffffffffffffffffffffffffffffffffffff1673ffffffffffffffffffffffffffffffffffffffff16815260200190815260200160002060000160009054906101000a900460ff16156114d9576000600760008373ffffffffffffffffffffffffffffffffffffffff1673ffffffffffffffffffffffffffffffffffffffff16815260200190815260200160002060000160006101000a81548160ff021916908315150217905550600760008273ffffffffffffffffffffffffffffffffffffffff1673ffffffffffffffffffffffffffffffffffffffff168152602001908152602001600020600080820160006101000a81549060ff02191690556001820160009055600282016000905550505b600860008273ffffffffffffffffffffffffffffffffffffffff1673ffffffffffffffffffffffffffffffffffffffff16815260200190815260200160002060000160009054906101000a900460ff16156115f8576000600860008373ffffffffffffffffffffffffffffffffffffffff1673ffffffffffffffffffffffffffffffffffffffff16815260200190815260200160002060000160006101000a81548160ff021916908315150217905550600860008273ffffffffffffffffffffffffffffffffffffffff1673ffffffffffffffffffffffffffffffffffffffff168152602001908152602001600020600080820160006101000a81549060ff021916905560018201600090556002820160009055600382016000905550505b600960008273ffffffffffffffffffffffffffffffffffffffff1673ffffffffffffffffffffffffffffffffffffffff16815260200190815260200160002060000160009054906101000a900460ff1615611717576000600960008373ffffffffffffffffffffffffffffffffffffffff1673ffffffffffffffffffffffffffffffffffffffff16815260200190815260200160002060000160006101000a81548160ff021916908315150217905550600960008273ffffffffffffffffffffffffffffffffffffffff1673ffffffffffffffffffffffffffffffffffffffff168152602001908152602001600020600080820160006101000a81549060ff021916905560018201600090556002820160009055600382016000905550505b50565b600281565b60006117b28383600160003373ffffffffffffffffffffffffffffffffffffffff1673ffffffffffffffffffffffffffffffffffffffff16815260200190815260200160002060008773ffffffffffffffffffffffffffffffffffffffff1673ffffffffffffffffffffffffffffffffffffffff168152602001908152602001600020546117ad9190613d79565b61087b565b506001905092915050565b6000600560003373ffffffffffffffffffffffffffffffffffffffff1673ffffffffffffffffffffffffffffffffffffffff16815260200190815260200160002054905090565b6000339050600660003373ffffffffffffffffffffffffffffffffffffffff1673ffffffffffffffffffffffffffffffffffffffff16815260200190815260200160002060000160009054906101000a900460ff1615611899576040517f08c379a000000000000000000000000000000000000000000000000000000000815260040161189090613c47565b60405180910390fd5b6001600560008373ffffffffffffffffffffffffffffffffffffffff1673ffffffffffffffffffffffffffffffffffffffff168152602001908152602001600020819055506000600660003373ffffffffffffffffffffffffffffffffffffffff1673ffffffffffffffffffffffffffffffffffffffff168152602001908152602001600020600201819055506001600660003373ffffffffffffffffffffffffffffffffffffffff1673ffffffffffffffffffffffffffffffffffffffff16815260200190815260200160002060000160006101000a81548160ff0219169083151502179055506113886000803373ffffffffffffffffffffffffffffffffffffffff1673ffffffffffffffffffffffffffffffffffffffff168152602001908152602001600020546119cd9190613d79565b6000803373ffffffffffffffffffffffffffffffffffffffff1673ffffffffffffffffffffffffffffffffffffffff168152602001908152602001600020819055506000808273ffffffffffffffffffffffffffffffffffffffff1673ffffffffffffffffffffffffffffffffffffffff16815260200190815260200160002054600660003373ffffffffffffffffffffffffffffffffffffffff1673ffffffffffffffffffffffffffffffffffffffff1681526020019081526020016000206001018190555050565b600960003373ffffffffffffffffffffffffffffffffffffffff1673ffffffffffffffffffffffffffffffffffffffff16815260200190815260200160002060000160009054906101000a900460ff16611af057600080fd5b60008390506000829050611b05848683610d87565b5080600860008673ffffffffffffffffffffffffffffffffffffffff1673ffffffffffffffffffffffffffffffffffffffff16815260200190815260200160002060010154611b549190613e29565b600860008673ffffffffffffffffffffffffffffffffffffffff1673ffffffffffffffffffffffffffffffffffffffff1681526020019081526020016000206001018190555080600960008473ffffffffffffffffffffffffffffffffffffffff1673ffffffffffffffffffffffffffffffffffffffff16815260200190815260200160002060010154611be89190613d79565b600960008473ffffffffffffffffffffffffffffffffffffffff1673ffffffffffffffffffffffffffffffffffffffff168152602001908152602001600020600101819055505050505050565b6000600360009054906101000a900473ffffffffffffffffffffffffffffffffffffffff1673ffffffffffffffffffffffffffffffffffffffff163373ffffffffffffffffffffffffffffffffffffffff1614611cc7576040517f08c379a0000000000000000000000000000000000000000000000000000000008152600401611cbe90613be7565b60405180910390fd5b600454905090565b60008060006001600560003373ffffffffffffffffffffffffffffffffffffffff1673ffffffffffffffffffffffffffffffffffffffff1681526020019081526020016000205414611d56576040517f08c379a0000000000000000000000000000000000000000000000000000000008152600401611d4d90613b07565b60405180910390fd5b600960008573ffffffffffffffffffffffffffffffffffffffff1673ffffffffffffffffffffffffffffffffffffffff16815260200190815260200160002060000160009054906101000a900460ff16611de5576040517f08c379a0000000000000000000000000000000000000000000000000000000008152600401611ddc90613ae7565b60405180910390fd5b6000600960008673ffffffffffffffffffffffffffffffffffffffff1673ffffffffffffffffffffffffffffffffffffffff1681526020019081526020016000206002015490506000600960008773ffffffffffffffffffffffffffffffffffffffff1673ffffffffffffffffffffffffffffffffffffffff1681526020019081526020016000206003015490506000808773ffffffffffffffffffffffffffffffffffffffff1673ffffffffffffffffffffffffffffffffffffffff16815260200190815260200160002054828294509450945050509193909250565b60008060008373ffffffffffffffffffffffffffffffffffffffff1673ffffffffffffffffffffffffffffffffffffffff168152602001908152602001600020549050919050565b6000339050600960003373ffffffffffffffffffffffffffffffffffffffff1673ffffffffffffffffffffffffffffffffffffffff16815260200190815260200160002060000160009054906101000a900460ff1615611fa0576040517f08c379a0000000000000000000000000000000000000000000000000000000008152600401611f9790613c07565b60405180910390fd5b6001600560008373ffffffffffffffffffffffffffffffffffffffff1673ffffffffffffffffffffffffffffffffffffffff1681526020019081526020016000208190555081600960003373ffffffffffffffffffffffffffffffffffffffff1673ffffffffffffffffffffffffffffffffffffffff168152602001908152602001600020600201819055506001600960003373ffffffffffffffffffffffffffffffffffffffff1673ffffffffffffffffffffffffffffffffffffffff168152602001908152602001600020600301819055506001600960003373ffffffffffffffffffffffffffffffffffffffff1673ffffffffffffffffffffffffffffffffffffffff16815260200190815260200160002060000160006101000a81548160ff02191690831515021790555060008060003373ffffffffffffffffffffffffffffffffffffffff1673ffffffffffffffffffffffffffffffffffffffff1681526020019081526020016000205461211a9190613d79565b6000803373ffffffffffffffffffffffffffffffffffffffff1673ffffffffffffffffffffffffffffffffffffffff168152602001908152602001600020819055506000808273ffffffffffffffffffffffffffffffffffffffff1673ffffffffffffffffffffffffffffffffffffffff16815260200190815260200160002054600960003373ffffffffffffffffffffffffffffffffffffffff1673ffffffffffffffffffffffffffffffffffffffff168152602001908152602001600020600101819055505050565b6040518060400160405280600481526020017f444e43450000000000000000000000000000000000000000000000000000000081525081565b600080600160003373ffffffffffffffffffffffffffffffffffffffff1673ffffffffffffffffffffffffffffffffffffffff16815260200190815260200160002060008573ffffffffffffffffffffffffffffffffffffffff1673ffffffffffffffffffffffffffffffffffffffff168152602001908152602001600020549050828110156122e3576040517f08c379a00000000000000000000000000000000000000000000000000000000081526004016122da90613ca7565b60405180910390fd5b6122ef8484830361087b565b50600191505092915050565b60008060003373ffffffffffffffffffffffffffffffffffffffff1673ffffffffffffffffffffffffffffffffffffffff1681526020019081526020016000205482111561234857600080fd5b612399826000803373ffffffffffffffffffffffffffffffffffffffff1673ffffffffffffffffffffffffffffffffffffffff168152602001908152602001600020546131d790919063ffffffff16565b6000803373ffffffffffffffffffffffffffffffffffffffff1673ffffffffffffffffffffffffffffffffffffffff1681526020019081526020016000208190555061242c826000808673ffffffffffffffffffffffffffffffffffffffff1673ffffffffffffffffffffffffffffffffffffffff1681526020019081526020016000205461322490919063ffffffff16565b6000808573ffffffffffffffffffffffffffffffffffffffff1673ffffffffffffffffffffffffffffffffffffffff168152602001908152602001600020819055508273ffffffffffffffffffffffffffffffffffffffff163373ffffffffffffffffffffffffffffffffffffffff167fddf252ad1be2c89b69c2b068fc378daa952ba7f163c4a11628f55a4df523b3ef846040516124cb9190613cc7565b60405180910390a36001905092915050565b6000806001600560003373ffffffffffffffffffffffffffffffffffffffff1673ffffffffffffffffffffffffffffffffffffffff1681526020019081526020016000205414612562576040517f08c379a000000000000000000000000000000000000000000000000000000000815260040161255990613b07565b60405180910390fd5b600760008473ffffffffffffffffffffffffffffffffffffffff1673ffffffffffffffffffffffffffffffffffffffff16815260200190815260200160002060000160009054906101000a900460ff166125f1576040517f08c379a00000000000000000000000000000000000000000000000000000000081526004016125e890613ac7565b60405180910390fd5b6000600760008573ffffffffffffffffffffffffffffffffffffffff1673ffffffffffffffffffffffffffffffffffffffff1681526020019081526020016000206002015490506000808573ffffffffffffffffffffffffffffffffffffffff1673ffffffffffffffffffffffffffffffffffffffff16815260200190815260200160002054819250925050915091565b6000806001600560003373ffffffffffffffffffffffffffffffffffffffff1673ffffffffffffffffffffffffffffffffffffffff1681526020019081526020016000205414612707576040517f08c379a00000000000000000000000000000000000000000000000000000000081526004016126fe90613b07565b60405180910390fd5b600660008473ffffffffffffffffffffffffffffffffffffffff1673ffffffffffffffffffffffffffffffffffffffff16815260200190815260200160002060000160009054906101000a900460ff16612796576040517f08c379a000000000000000000000000000000000000000000000000000000000815260040161278d90613b67565b60405180910390fd5b6000600660008573ffffffffffffffffffffffffffffffffffffffff1673ffffffffffffffffffffffffffffffffffffffff1681526020019081526020016000206002015490506000808573ffffffffffffffffffffffffffffffffffffffff1673ffffffffffffffffffffffffffffffffffffffff16815260200190815260200160002054819250925050915091565b6000600160008473ffffffffffffffffffffffffffffffffffffffff1673ffffffffffffffffffffffffffffffffffffffff16815260200190815260200160002060008373ffffffffffffffffffffffffffffffffffffffff1673ffffffffffffffffffffffffffffffffffffffff16815260200190815260200160002054905092915050565b60006001600560003373ffffffffffffffffffffffffffffffffffffffff1673ffffffffffffffffffffffffffffffffffffffff16815260200190815260200160002054146128fc57600080fd5b6000339050600660008273ffffffffffffffffffffffffffffffffffffffff1673ffffffffffffffffffffffffffffffffffffffff16815260200190815260200160002060000160009054906101000a900460ff16612990576040517f08c379a000000000000000000000000000000000000000000000000000000000815260040161298790613b87565b60405180910390fd5b600760008473ffffffffffffffffffffffffffffffffffffffff1673ffffffffffffffffffffffffffffffffffffffff16815260200190815260200160002060000160009054906101000a900460ff16612a1f576040517f08c379a0000000000000000000000000000000000000000000000000000000008152600401612a1690613b47565b60405180910390fd5b6000600760008573ffffffffffffffffffffffffffffffffffffffff1673ffffffffffffffffffffffffffffffffffffffff1681526020019081526020016000206002015490506000600660008473ffffffffffffffffffffffffffffffffffffffff1673ffffffffffffffffffffffffffffffffffffffff168152602001908152602001600020600201549050612ab785836122fb565b506000808473ffffffffffffffffffffffffffffffffffffffff1673ffffffffffffffffffffffffffffffffffffffff16815260200190815260200160002054600660008573ffffffffffffffffffffffffffffffffffffffff1673ffffffffffffffffffffffffffffffffffffffff168152602001908152602001600020600101819055506000808673ffffffffffffffffffffffffffffffffffffffff1673ffffffffffffffffffffffffffffffffffffffff16815260200190815260200160002054600760008773ffffffffffffffffffffffffffffffffffffffff1673ffffffffffffffffffffffffffffffffffffffff16815260200190815260200160002060010181905550600181612bcf9190613d79565b600660008573ffffffffffffffffffffffffffffffffffffffff1673ffffffffffffffffffffffffffffffffffffffff16815260200190815260200160002060020181905550819350505050919050565b6000339050600860003373ffffffffffffffffffffffffffffffffffffffff1673ffffffffffffffffffffffffffffffffffffffff16815260200190815260200160002060000160009054906101000a900460ff1615612cb5576040517f08c379a0000000000000000000000000000000000000000000000000000000008152600401612cac90613c87565b60405180910390fd5b6001600560008373ffffffffffffffffffffffffffffffffffffffff1673ffffffffffffffffffffffffffffffffffffffff168152602001908152602001600020819055506000600860003373ffffffffffffffffffffffffffffffffffffffff1673ffffffffffffffffffffffffffffffffffffffff168152602001908152602001600020600201819055506000600860003373ffffffffffffffffffffffffffffffffffffffff1673ffffffffffffffffffffffffffffffffffffffff168152602001908152602001600020600301819055506001600860003373ffffffffffffffffffffffffffffffffffffffff1673ffffffffffffffffffffffffffffffffffffffff16815260200190815260200160002060000160006101000a81548160ff0219169083151502179055506113886000803373ffffffffffffffffffffffffffffffffffffffff1673ffffffffffffffffffffffffffffffffffffffff16815260200190815260200160002054612e319190613d79565b6000803373ffffffffffffffffffffffffffffffffffffffff1673ffffffffffffffffffffffffffffffffffffffff168152602001908152602001600020819055506000808273ffffffffffffffffffffffffffffffffffffffff1673ffffffffffffffffffffffffffffffffffffffff16815260200190815260200160002054600860003373ffffffffffffffffffffffffffffffffffffffff1673ffffffffffffffffffffffffffffffffffffffff1681526020019081526020016000206001018190555050565b60006001600560003373ffffffffffffffffffffffffffffffffffffffff1673ffffffffffffffffffffffffffffffffffffffff1681526020019081526020016000205414612f4957600080fd5b6000339050600960008573ffffffffffffffffffffffffffffffffffffffff1673ffffffffffffffffffffffffffffffffffffffff16815260200190815260200160002060000160009054906101000a900460ff16612fdd576040517f08c379a0000000000000000000000000000000000000000000000000000000008152600401612fd490613b27565b60405180910390fd5b6001600560008373ffffffffffffffffffffffffffffffffffffffff1673ffffffffffffffffffffffffffffffffffffffff168152602001908152602001600020541461305f576040517f08c379a000000000000000000000000000000000000000000000000000000000815260040161305690613c67565b60405180910390fd5b6000600960008673ffffffffffffffffffffffffffffffffffffffff1673ffffffffffffffffffffffffffffffffffffffff168152602001908152602001600020600201549050600084826130b49190613dcf565b90506130c086826122fb565b506000808773ffffffffffffffffffffffffffffffffffffffff1673ffffffffffffffffffffffffffffffffffffffff16815260200190815260200160002054600960008873ffffffffffffffffffffffffffffffffffffffff1673ffffffffffffffffffffffffffffffffffffffff168152602001908152602001600020600101819055506000808473ffffffffffffffffffffffffffffffffffffffff1673ffffffffffffffffffffffffffffffffffffffff16815260200190815260200160002054600860008573ffffffffffffffffffffffffffffffffffffffff1673ffffffffffffffffffffffffffffffffffffffff1681526020019081526020016000206001018190555080935050505092915050565b600082821115613210577f4e487b7100000000000000000000000000000000000000000000000000000000600052600160045260246000fd5b818361321c9190613e29565b905092915050565b60008082846132339190613d79565b90508381101561326c577f4e487b7100000000000000000000000000000000000000000000000000000000600052600160045260246000fd5b8091505092915050565b60008135905061328581613f37565b92915050565b60008135905061329a81613f4e565b92915050565b6000813590506132af81613f65565b92915050565b6000602082840312156132c757600080fd5b60006132d584828501613276565b91505092915050565b6000602082840312156132f057600080fd5b60006132fe8482850161328b565b91505092915050565b60008060006060848603121561331c57600080fd5b600061332a8682870161328b565b935050602061333b8682870161328b565b925050604061334c868287016132a0565b9150509250925092565b6000806040838503121561336957600080fd5b60006133778582860161328b565b9250506020613388858286016132a0565b9150509250929050565b600080604083850312156133a557600080fd5b60006133b385828601613276565b92505060206133c485828601613276565b9150509250929050565b6000806000606084860312156133e357600080fd5b60006133f186828701613276565b935050602061340286828701613276565b9250506040613413868287016132a0565b9150509250925092565b6000806040838503121561343057600080fd5b600061343e85828601613276565b925050602061344f858286016132a0565b9150509250929050565b60006020828403121561346b57600080fd5b6000613479848285016132a0565b91505092915050565b61348b81613e81565b82525050565b600061349c82613d5d565b6134a68185613d68565b93506134b6818560208601613ec4565b6134bf81613f26565b840191505092915050565b60006134d7601983613d68565b91507f2054656163686572206e6f7420726567697374657265642e20000000000000006000830152602082019050919050565b6000613517601e83613d68565b91507f2053747564696f204f776e6572206e6f7420726567697374657265642e2000006000830152602082019050919050565b6000613557604f83613d68565b91507f2050726f766973696f6e206f662064657461696c73206e6f74207065726d697460008301527f7465642e20506c6561736520726567697374657220796f757273656c6620696e60208301527f746f207468652073797374656d2e2000000000000000000000000000000000006040830152606082019050919050565b60006135e3603883613d68565b91507f205468652053747564696f204f776e6572206973206e6f74207265676973746560008301527f7265642e204f7065726174696f6e2061626f727465642e2000000000000000006020830152604082019050919050565b6000613649603283613d68565b91507f20446573697265642074656163686572206973206e6f7420726567697374657260008301527f65642e20506c6561736520636865636b2e2000000000000000000000000000006020830152604082019050919050565b60006136af601983613d68565b91507f2053747564656e74206e6f7420726567697374657265642e20000000000000006000830152602082019050919050565b60006136ef604283613d68565b91507f20556e61626c6520746f207075726368617365207468697320636c6173732e2060008301527f506c656173652072656769737465722061732053747564656e7420666972737460208301527f2e200000000000000000000000000000000000000000000000000000000000006040830152606082019050919050565b600061377b602783613d68565b91507f2044656e6965642072696768747320746f20706572666f726d2074686973206160008301527f6374696f6e2e20000000000000000000000000000000000000000000000000006020830152604082019050919050565b60006137e1601d83613d68565b91507f205465616368657220616c726561647920726567697374657265642e200000006000830152602082019050919050565b6000613821602183613d68565b91507f55736572206973206e6f742041646d696e2e205269676874732064656e69656460008301527f2e000000000000000000000000000000000000000000000000000000000000006020830152604082019050919050565b6000613887602283613d68565b91507f2053747564696f204f776e657220616c7265616479207265676973746572656460008301527f2e200000000000000000000000000000000000000000000000000000000000006020830152604082019050919050565b60006138ed601883613d68565b91507f2052656e746572206e6f7420726567697374657265642e2000000000000000006000830152602082019050919050565b600061392d601d83613d68565b91507f2053747564656e7420616c726561647920726567697374657265642e200000006000830152602082019050919050565b600061396d600f83613d68565b91507f204e6f742061206d656d6265722e2000000000000000000000000000000000006000830152602082019050919050565b60006139ad602383613d68565b91507f2053747564696f2052656e74657220616c72656164792072656769737465726560008301527f642e2000000000000000000000000000000000000000000000000000000000006020830152604082019050919050565b6000613a13602583613d68565b91507f45524332303a2064656372656173656420616c6c6f77616e63652062656c6f7760008301527f207a65726f0000000000000000000000000000000000000000000000000000006020830152604082019050919050565b613a7581613ead565b82525050565b613a8481613eb7565b82525050565b6000602082019050613a9f6000830184613482565b92915050565b60006020820190508181036000830152613abf8184613491565b905092915050565b60006020820190508181036000830152613ae0816134ca565b9050919050565b60006020820190508181036000830152613b008161350a565b9050919050565b60006020820190508181036000830152613b208161354a565b9050919050565b60006020820190508181036000830152613b40816135d6565b9050919050565b60006020820190508181036000830152613b608161363c565b9050919050565b60006020820190508181036000830152613b80816136a2565b9050919050565b60006020820190508181036000830152613ba0816136e2565b9050919050565b60006020820190508181036000830152613bc08161376e565b9050919050565b60006020820190508181036000830152613be0816137d4565b9050919050565b60006020820190508181036000830152613c0081613814565b9050919050565b60006020820190508181036000830152613c208161387a565b9050919050565b60006020820190508181036000830152613c40816138e0565b9050919050565b60006020820190508181036000830152613c6081613920565b9050919050565b60006020820190508181036000830152613c8081613960565b9050919050565b60006020820190508181036000830152613ca0816139a0565b9050919050565b60006020820190508181036000830152613cc081613a06565b9050919050565b6000602082019050613cdc6000830184613a6c565b92915050565b6000604082019050613cf76000830185613a6c565b613d046020830184613a6c565b9392505050565b6000606082019050613d206000830186613a6c565b613d2d6020830185613a6c565b613d3a6040830184613a6c565b949350505050565b6000602082019050613d576000830184613a7b565b92915050565b600081519050919050565b600082825260208201905092915050565b6000613d8482613ead565b9150613d8f83613ead565b9250827fffffffffffffffffffffffffffffffffffffffffffffffffffffffffffffffff03821115613dc457613dc3613ef7565b5b828201905092915050565b6000613dda82613ead565b9150613de583613ead565b9250817fffffffffffffffffffffffffffffffffffffffffffffffffffffffffffffffff0483118215151615613e1e57613e1d613ef7565b5b828202905092915050565b6000613e3482613ead565b9150613e3f83613ead565b925082821015613e5257613e51613ef7565b5b828203905092915050565b6000613e6882613e8d565b9050919050565b6000613e7a82613e8d565b9050919050565b60008115159050919050565b600073ffffffffffffffffffffffffffffffffffffffff82169050919050565b6000819050919050565b600060ff82169050919050565b60005b83811015613ee2578082015181840152602081019050613ec7565b83811115613ef1576000848401525b50505050565b7f4e487b7100000000000000000000000000000000000000000000000000000000600052601160045260246000fd5b6000601f19601f8301169050919050565b613f4081613e5d565b8114613f4b57600080fd5b50565b613f5781613e6f565b8114613f6257600080fd5b50565b613f6e81613ead565b8114613f7957600080fd5b5056fea2646970667358221220fe800bd18a68b989dda8a1515802688e241db45b8f99273819ad0056699488e764736f6c63430008000033",
  "immutableReferences": {},
  "source": "// SPDX-License-Identifier: UNLICENSED\r\npragma solidity ^0.8.0;\r\n\r\n\r\ncontract DNCE_Application {\r\n    \r\n    \r\n    string public constant name = \"DaNceCommunityEngagement\";\r\n    string public constant symbol = \"DNCE\";\r\n    uint8 public constant decimals = 2;  \r\n\r\n    event Approval(address indexed tokenOwner, address indexed user, uint no_tokens);\r\n    event Transfer(address indexed from, address indexed to, uint no_tokens);\r\n\r\n\r\n    mapping(address => uint256) balances;\r\n    mapping(address => mapping (address => uint256)) allowed;\r\n    \r\n    uint256 _totalSupply;\r\n\r\n    using SafeMath for uint256;\r\n    \r\n    address admin;\r\n    uint admin_balance;\r\n    \r\n        // All the application mappings created here\r\n    \r\n    mapping(address=>uint) membership;\r\n    \r\n    mapping(address=>Student) StudentDetails;\r\n    mapping(address=>Teacher) TeacherDetails;\r\n    mapping(address=>StudioRenter) StudioRentalDetails;\r\n    mapping(address=>StudioOwner) StudioOwnerDetails;\r\n    \r\n    // All the user structures defined here\r\n    struct Student {\r\n        bool is_Student;\r\n        uint s_wallet;\r\n        uint classes_taken;\r\n    }\r\n    \r\n    struct Teacher {\r\n        bool is_Teacher;\r\n        uint t_wallet;\r\n        uint class_fees;\r\n    }\r\n    \r\n    struct StudioRenter {\r\n        bool is_StudioRenter;\r\n        uint m_wallet;\r\n        uint rent_Amount;\r\n        uint time_hours;\r\n    }\r\n    \r\n    struct StudioOwner {\r\n        bool is_StudioOwner;\r\n        uint o_wallet;\r\n        uint rent_Amount;\r\n        uint time_hours;\r\n    }\r\n    \r\n    // Token related functions defined here\r\n    \r\n    function totalSupply() public view returns (uint256) {\r\n\treturn _totalSupply;\r\n    }\r\n    \r\n    function balanceOf(address tokenOwner) public view returns (uint) {\r\n        return balances[tokenOwner];\r\n    }\r\n\r\n    function transfer(address receiver, uint numTokens) public returns (bool) {\r\n        require(numTokens <= balances[msg.sender]);\r\n        balances[msg.sender] = balances[msg.sender].sub(numTokens);\r\n        balances[receiver] = balances[receiver].add(numTokens);\r\n        emit Transfer(msg.sender, receiver, numTokens);\r\n        return true;\r\n    }\r\n\r\n    function approve(address delegate, uint numTokens) public returns (bool) {\r\n        allowed[msg.sender][delegate] = numTokens;\r\n        emit Approval(msg.sender, delegate, numTokens);\r\n        return true;\r\n    }\r\n\r\n    function allowance(address owner, address delegate) public view returns (uint) {\r\n        return allowed[owner][delegate];\r\n    }\r\n    \r\n    function increaseAllowance(address delegate, uint256 incValue) public virtual returns (bool) {\r\n        approve(delegate, allowed[msg.sender][delegate] + incValue);\r\n        return true;\r\n    }\r\n    \r\n    function decreaseAllowance(address delegate, uint256 decValue) public virtual returns (bool) {\r\n        uint256 currentAllowance = allowed[msg.sender][delegate];\r\n        require(currentAllowance >= decValue, \"ERC20: decreased allowance below zero\");\r\n        unchecked {\r\n            //uint256 value = currentAllowance - decValue;\r\n            approve(delegate, currentAllowance - decValue);\r\n            \r\n        }\r\n        //approve(delegate, value);\r\n\r\n        return true;\r\n    }\r\n\r\n    function transferFrom(address owner, address buyer, uint numTokens) public returns (bool) {\r\n        require(numTokens <= balances[owner]);    \r\n        require(numTokens <= allowed[owner][msg.sender]);\r\n    \r\n        balances[owner] = balances[owner].sub(numTokens);\r\n        allowed[owner][msg.sender] = allowed[owner][msg.sender].sub(numTokens);\r\n        balances[buyer] = balances[buyer].add(numTokens);\r\n        emit Transfer(owner, buyer, numTokens);\r\n        return true;\r\n    }\r\n    \r\n\r\n    \r\n    constructor(uint256 total) public payable {\r\n        // For total tokens\r\n        _totalSupply = total;\r\n\t    balances[msg.sender] = _totalSupply;\r\n\t    \r\n\t    // Admin rights\r\n        admin=msg.sender;\r\n        membership[admin] = 1;\r\n        admin_balance = _totalSupply;\r\n    }\r\n    \r\n    \r\n    // Modifiers\r\n    \r\n    modifier onlyAdmin{ \r\n        require(msg.sender==admin, \"User is not Admin. Rights denied.\");\r\n        _;\r\n    }\r\n    \r\n    modifier onlyMember {\r\n        require(membership[msg.sender] == 1);\r\n        _;\r\n    }\r\n    \r\n    modifier onlyTeacher {\r\n        require(TeacherDetails[msg.sender].is_Teacher);\r\n        _;\r\n    }\r\n    \r\n    modifier onlyStudioOwner {\r\n        require(StudioOwnerDetails[msg.sender].is_StudioOwner);\r\n        _;\r\n    }\r\n\r\n    function viewAdminBalance() public onlyAdmin view returns (uint){\r\n        return admin_balance;\r\n    }  \r\n\r\n    function viewMembership() public view returns (uint){\r\n        return membership[msg.sender];\r\n    }\r\n    \r\n    // Registration functions\r\n    \r\n    function registerStudent() public payable {\r\n        address student = msg.sender;\r\n\r\n        // Check if already registered\r\n        if(StudentDetails[msg.sender].is_Student){\r\n            revert(\" Student already registered. \");\r\n        }\r\n\r\n        // Else register if not already\r\n        membership[student] = 1;\r\n        //balances[student] = 5000;\r\n        StudentDetails[msg.sender].classes_taken= 0;\r\n        StudentDetails[msg.sender].is_Student = true;\r\n        balances[msg.sender] = balances[msg.sender] + 5000;\r\n        StudentDetails[msg.sender].s_wallet = balances[student];\r\n    }\r\n    \r\n    function registerTeacher(uint fees_to_charge) public payable {\r\n        address teacher = msg.sender;\r\n        \r\n        // Check if already registered\r\n        if(TeacherDetails[msg.sender].is_Teacher){\r\n            revert(\" Teacher already registered. \");\r\n        }\r\n\r\n        // Else register if not already\r\n        membership[teacher]=1;\r\n        //balances[teacher]= 0;\r\n        TeacherDetails[msg.sender].class_fees = fees_to_charge;\r\n        TeacherDetails[msg.sender].is_Teacher = true;\r\n        balances[msg.sender] = balances[msg.sender] + 0;\r\n        TeacherDetails[msg.sender].t_wallet = balances[teacher];\r\n    }\r\n    \r\n    function registerStudioRenter() public payable {\r\n        address renter = msg.sender;\r\n\r\n        // Check if already registered\r\n        if(StudioRentalDetails[msg.sender].is_StudioRenter){\r\n            revert(\" Studio Renter already registered. \");\r\n        }\r\n\r\n        // Else register if not already\r\n\r\n        membership[renter]=1;\r\n        //balances[renter] = 5000;\r\n        //StudioRentalDetails[msg.sender].m_wallet = balances[renter];\r\n        StudioRentalDetails[msg.sender].rent_Amount = 0;\r\n        StudioRentalDetails[msg.sender].time_hours = 0;\r\n        StudioRentalDetails[msg.sender].is_StudioRenter = true;\r\n        balances[msg.sender] = balances[msg.sender] + 5000;\r\n        StudioRentalDetails[msg.sender].m_wallet = balances[renter];\r\n        \r\n        /*if(studioOwner == 1){\r\n            StudioRentalDetails[msg.sender].is_StudioOwner = true;\r\n        }*/\r\n\r\n    }\r\n    \r\n    function registerStudioOwner(uint rent_to_charge_per_hour) public payable {\r\n        address owner = msg.sender;\r\n\r\n        // Check if already registered\r\n        if(StudioOwnerDetails[msg.sender].is_StudioOwner){\r\n            revert(\" Studio Owner already registered. \");\r\n        }\r\n\r\n        // Else register if not already\r\n        membership[owner]=1;\r\n        //balances[owner] = 0;\r\n        StudioOwnerDetails[msg.sender].rent_Amount = rent_to_charge_per_hour;\r\n        StudioOwnerDetails[msg.sender].time_hours = 1;\r\n        StudioOwnerDetails[msg.sender].is_StudioOwner = true;\r\n        balances[msg.sender] = balances[msg.sender] + 0;\r\n        StudioOwnerDetails[msg.sender].o_wallet = balances[owner];\r\n\r\n    }\r\n    \r\n    // Functions to get user Details\r\n    \r\n    function getStudentDetails(address student) public view returns (uint, uint) {\r\n        if(membership[msg.sender]!=1){\r\n            revert(\" Provision of details not permitted. Please register yourself into the system. \");\r\n        }\r\n        if(!StudentDetails[student].is_Student){\r\n            revert(\" Student not registered. \");\r\n        }\r\n        \r\n        uint classes_taken = StudentDetails[student].classes_taken;\r\n        //StudentDetails[student].s_wallet = balances[student];\r\n        return (balances[student] , classes_taken);\r\n    }\r\n    \r\n    \r\n    function getTeacherDetails(address teacher) public view returns (uint, uint) {\r\n        if(membership[msg.sender]!=1){\r\n            revert(\" Provision of details not permitted. Please register yourself into the system. \");\r\n        }\r\n        if(!TeacherDetails[teacher].is_Teacher){\r\n            revert(\" Teacher not registered. \");\r\n        }\r\n        \r\n        uint class_fees = TeacherDetails[teacher].class_fees;\r\n        //TeacherDetails[teacher].t_wallet = balances[teacher];\r\n        return (balances[teacher], class_fees);\r\n    }\r\n    \r\n    \r\n    function getStudioRenterDetails(address renter) public view returns (uint, uint, uint) {\r\n        if(membership[msg.sender]!=1){\r\n            revert(\" Provision of details not permitted. Please register yourself into the system. \");\r\n        }\r\n        if(!StudioRentalDetails[renter].is_StudioRenter){\r\n            revert(\" Renter not registered. \");\r\n        }\r\n        \r\n        uint rent_Amount = StudioRentalDetails[renter].rent_Amount;\r\n        uint time_hours = StudioRentalDetails[renter].time_hours;\r\n        //StudioRentalDetails[renter].m_wallet = balances[renter];\r\n        return (balances[renter], rent_Amount, time_hours);\r\n    }\r\n    \r\n    function getStudioOwnerDetails(address owner) public view returns (uint, uint, uint) {\r\n        if(membership[msg.sender]!=1){\r\n            revert(\" Provision of details not permitted. Please register yourself into the system. \");\r\n        }\r\n        if(!StudioOwnerDetails[owner].is_StudioOwner){\r\n            revert(\" Studio Owner not registered. \");\r\n        }\r\n        \r\n        uint rent_Amount = StudioOwnerDetails[owner].rent_Amount;\r\n        uint time_hours = StudioOwnerDetails[owner].time_hours;\r\n        //StudioOwnerDetails[owner].o_wallet = balances[owner];\r\n        return (balances[owner], rent_Amount, time_hours);\r\n    }\r\n\r\n\r\n    // Special functions of the application\r\n    \r\n    function purchaseClass(address payable teacher) public onlyMember payable returns (uint){\r\n        address student = msg.sender;\r\n        if(!StudentDetails[student].is_Student){\r\n            revert(\" Unable to purchase this class. Please register as Student first. \");\r\n        }\r\n        \r\n        if(!TeacherDetails[teacher].is_Teacher){\r\n            revert(\" Desired teacher is not registered. Please check. \");\r\n        }\r\n        \r\n        uint class_fees = TeacherDetails[teacher].class_fees;\r\n        uint classes_taken = StudentDetails[student].classes_taken;\r\n        \r\n        transfer(teacher, class_fees);\r\n        //StudentDetails[student].s_wallet = StudentDetails[student].s_wallet - class_fees;\r\n        //TeacherDetails[teacher].t_wallet = TeacherDetails[teacher].t_wallet + class_fees;\r\n        StudentDetails[student].s_wallet = balances[student];\r\n        TeacherDetails[teacher].t_wallet = balances[teacher];\r\n        \r\n        // Update classes taken count\r\n        //classes_taken = classes_taken + 1;\r\n        StudentDetails[student].classes_taken = classes_taken + 1;\r\n        return class_fees;\r\n    }\r\n    \r\n    function rentStudio(address payable studio_owner, uint number_of_hours) public onlyMember payable returns (uint) {\r\n        address renter = msg.sender;\r\n        if(!StudioOwnerDetails[studio_owner].is_StudioOwner){\r\n            revert(\" The Studio Owner is not registered. Operation aborted. \");\r\n        }\r\n        \r\n        if(membership[renter]!=1){\r\n            revert(\" Not a member. \");\r\n        }\r\n        \r\n        uint rent_Amount_stated_by_owner = StudioOwnerDetails[studio_owner].rent_Amount;\r\n        uint total_rent_amount = (rent_Amount_stated_by_owner * number_of_hours);\r\n        \r\n        transfer(studio_owner, total_rent_amount); \r\n        //StudioOwnerDetails[studio_owner].o_wallet = StudioOwnerDetails[studio_owner].o_wallet + total_rent_amount;\r\n        //StudioRentalDetails[msg.sender].m_wallet = StudioRentalDetails[msg.sender].m_wallet - total_rent_amount;\r\n        StudioOwnerDetails[studio_owner].o_wallet = balances[studio_owner];\r\n        StudioRentalDetails[renter].m_wallet = balances[renter];\r\n\r\n        return total_rent_amount;\r\n        \r\n    }\r\n    \r\n    \r\n    function settlePayment(address payable owner, address payable renter, uint amount) public onlyStudioOwner payable {\r\n        address studio_owner = owner;\r\n        uint payment = amount;\r\n\r\n        transferFrom(renter, owner,  payment);\r\n        StudioRentalDetails[renter].m_wallet = StudioRentalDetails[renter].m_wallet - payment;\r\n        StudioOwnerDetails[studio_owner].o_wallet = StudioOwnerDetails[studio_owner].o_wallet + payment;\r\n        \r\n        \r\n    }\r\n\r\n    function classCompletionRewards(address payable user) public onlyAdmin payable returns (uint){\r\n        uint classes_taken = StudentDetails[user].classes_taken;\r\n        uint rewardAmount = 2000;\r\n        if(classes_taken > 3) {\r\n            transfer(user, rewardAmount);\r\n            admin_balance = admin_balance - rewardAmount;\r\n            balances[admin] = admin_balance;\r\n            classes_taken = 0;\r\n            \r\n        }\r\n\r\n        return rewardAmount;\r\n    }\r\n    \r\n    // UNREGISTER - Rights only with Admin\r\n    function unregister (address payable user) onlyAdmin public {\r\n        \r\n        if(msg.sender != admin){\r\n            revert(\" Denied rights to perform this action. \");\r\n        }\r\n        membership[user]= 0;\r\n        balances[user] = 0;  //User balance is reset.\r\n        if (StudentDetails[user].is_Student){\r\n            StudentDetails[user].is_Student = false;\r\n            delete (StudentDetails[user]);\r\n        }\r\n        if (TeacherDetails[user].is_Teacher){\r\n            TeacherDetails[user].is_Teacher = false;\r\n            delete(TeacherDetails[user]);\r\n        }\r\n        if (StudioRentalDetails[user].is_StudioRenter){\r\n            StudioRentalDetails[user].is_StudioRenter = false;\r\n            delete(StudioRentalDetails[user]);\r\n        }\r\n        if (StudioOwnerDetails[user].is_StudioOwner){\r\n            StudioOwnerDetails[user].is_StudioOwner = false;\r\n            delete(StudioOwnerDetails[user]);\r\n        }\r\n    }\r\n    \r\n}\r\n\r\n    // Math Library\r\nlibrary SafeMath { \r\n    function sub(uint256 a, uint256 b) internal pure returns (uint256) {\r\n      assert(b <= a);\r\n      return a - b;\r\n    }\r\n    \r\n    function add(uint256 a, uint256 b) internal pure returns (uint256) {\r\n      uint256 c = a + b;\r\n      assert(c >= a);\r\n      return c;\r\n    }\r\n    \r\n    function multiply(uint256 a, uint256 b) internal pure returns (uint256) {\r\n      uint256 c = a * b;\r\n      assert(c >= a);\r\n      return c;\r\n    }\r\n}\r\n",
  "sourcePath": "C:\\CourseWork\\BlockChain\\DNCEv3\\DNCE\\dnce-contract\\contracts\\DNCE_Application.sol",
  "compiler": {
    "name": "solc",
    "version": "0.8.0+commit.c7dfd78e.Emscripten.clang"
  },
  "schemaVersion": "3.4.3",
  "updatedAt": "2021-12-07T17:50:22.682Z",
  "networkType": "ethereum",
  "devdoc": {
    "kind": "dev",
    "methods": {},
    "version": 1
  },
  "userdoc": {
    "kind": "user",
    "methods": {},
    "version": 1
  }
}